{
  "address": "0xE0493C033de9BBD5f964Aa5e496F31c4bc910b30",
  "abi": [
    {
      "inputs": [
        {
          "internalType": "address",
          "name": "owner",
          "type": "address"
        },
        {
          "internalType": "string",
          "name": "name",
          "type": "string"
        },
        {
          "internalType": "string",
          "name": "symbol",
          "type": "string"
        },
        {
          "internalType": "string",
          "name": "uri",
          "type": "string"
        }
      ],
      "stateMutability": "nonpayable",
      "type": "constructor"
    },
    {
      "inputs": [
        {
          "internalType": "uint256",
          "name": "requestId",
          "type": "uint256"
        }
      ],
      "name": "ConfidentialFungibleTokenInvalidGatewayRequest",
      "type": "error"
    },
    {
      "inputs": [
        {
          "internalType": "address",
          "name": "receiver",
          "type": "address"
        }
      ],
      "name": "ConfidentialFungibleTokenInvalidReceiver",
      "type": "error"
    },
    {
      "inputs": [
        {
          "internalType": "address",
          "name": "sender",
          "type": "address"
        }
      ],
      "name": "ConfidentialFungibleTokenInvalidSender",
      "type": "error"
    },
    {
      "inputs": [
        {
          "internalType": "address",
          "name": "caller",
          "type": "address"
        }
      ],
      "name": "ConfidentialFungibleTokenUnauthorizedCaller",
      "type": "error"
    },
    {
      "inputs": [
        {
          "internalType": "address",
          "name": "holder",
          "type": "address"
        },
        {
          "internalType": "address",
          "name": "spender",
          "type": "address"
        }
      ],
      "name": "ConfidentialFungibleTokenUnauthorizedSpender",
      "type": "error"
    },
    {
      "inputs": [
        {
          "internalType": "euint64",
          "name": "amount",
          "type": "bytes32"
        },
        {
          "internalType": "address",
          "name": "user",
          "type": "address"
        }
      ],
      "name": "ConfidentialFungibleTokenUnauthorizedUseOfEncryptedAmount",
      "type": "error"
    },
    {
      "inputs": [
        {
          "internalType": "address",
          "name": "holder",
          "type": "address"
        }
      ],
      "name": "ConfidentialFungibleTokenZeroBalance",
      "type": "error"
    },
    {
      "inputs": [],
      "name": "HandlesAlreadySavedForRequestID",
      "type": "error"
    },
    {
      "inputs": [],
      "name": "InvalidKMSSignatures",
      "type": "error"
    },
    {
      "inputs": [],
      "name": "NoHandleFoundForRequestID",
      "type": "error"
    },
    {
      "inputs": [
        {
          "internalType": "address",
          "name": "owner",
          "type": "address"
        }
      ],
      "name": "OwnableInvalidOwner",
      "type": "error"
    },
    {
      "inputs": [
        {
          "internalType": "address",
          "name": "account",
          "type": "address"
        }
      ],
      "name": "OwnableUnauthorizedAccount",
      "type": "error"
    },
    {
      "inputs": [],
      "name": "UnsupportedHandleType",
      "type": "error"
    },
    {
      "anonymous": false,
      "inputs": [
        {
          "indexed": true,
          "internalType": "euint64",
          "name": "encryptedAmount",
          "type": "bytes32"
        },
        {
          "indexed": false,
          "internalType": "uint64",
          "name": "amount",
          "type": "uint64"
        }
      ],
      "name": "AmountDisclosed",
      "type": "event"
    },
    {
      "anonymous": false,
      "inputs": [
        {
          "indexed": true,
          "internalType": "address",
          "name": "from",
          "type": "address"
        },
        {
          "indexed": true,
          "internalType": "address",
          "name": "to",
          "type": "address"
        },
        {
          "indexed": true,
          "internalType": "euint64",
          "name": "amount",
          "type": "bytes32"
        }
      ],
      "name": "ConfidentialTransfer",
      "type": "event"
    },
    {
      "anonymous": false,
      "inputs": [
        {
          "indexed": true,
          "internalType": "uint256",
          "name": "requestID",
          "type": "uint256"
        }
      ],
      "name": "DecryptionFulfilled",
      "type": "event"
    },
    {
      "anonymous": false,
      "inputs": [
        {
          "indexed": true,
          "internalType": "address",
          "name": "holder",
          "type": "address"
        },
        {
          "indexed": true,
          "internalType": "address",
          "name": "operator",
          "type": "address"
        },
        {
          "indexed": false,
          "internalType": "uint48",
          "name": "until",
          "type": "uint48"
        }
      ],
      "name": "OperatorSet",
      "type": "event"
    },
    {
      "anonymous": false,
      "inputs": [
        {
          "indexed": true,
          "internalType": "address",
          "name": "previousOwner",
          "type": "address"
        },
        {
          "indexed": true,
          "internalType": "address",
          "name": "newOwner",
          "type": "address"
        }
      ],
      "name": "OwnershipTransferred",
      "type": "event"
    },
    {
      "inputs": [
        {
          "internalType": "euint64",
          "name": "balanceHandle",
          "type": "bytes32"
        }
      ],
      "name": "authorizeSelf",
      "outputs": [],
      "stateMutability": "nonpayable",
      "type": "function"
    },
    {
      "inputs": [
        {
          "internalType": "address",
          "name": "from",
          "type": "address"
        },
        {
          "internalType": "externalEuint64",
          "name": "amount",
          "type": "bytes32"
        },
        {
          "internalType": "bytes",
          "name": "inputProof",
          "type": "bytes"
        }
      ],
      "name": "burn",
      "outputs": [],
      "stateMutability": "nonpayable",
      "type": "function"
    },
    {
      "inputs": [
        {
          "internalType": "address",
          "name": "account",
          "type": "address"
        }
      ],
      "name": "confidentialBalanceOf",
      "outputs": [
        {
          "internalType": "euint64",
          "name": "",
          "type": "bytes32"
        }
      ],
      "stateMutability": "view",
      "type": "function"
    },
    {
      "inputs": [],
      "name": "confidentialTotalSupply",
      "outputs": [
        {
          "internalType": "euint64",
          "name": "",
          "type": "bytes32"
        }
      ],
      "stateMutability": "view",
      "type": "function"
    },
    {
      "inputs": [
        {
          "internalType": "address",
          "name": "to",
          "type": "address"
        },
        {
          "internalType": "externalEuint64",
          "name": "encryptedAmount",
          "type": "bytes32"
        },
        {
          "internalType": "bytes",
          "name": "inputProof",
          "type": "bytes"
        }
      ],
      "name": "confidentialTransfer",
      "outputs": [
        {
          "internalType": "euint64",
          "name": "",
          "type": "bytes32"
        }
      ],
      "stateMutability": "nonpayable",
      "type": "function"
    },
    {
      "inputs": [
        {
          "internalType": "address",
          "name": "to",
          "type": "address"
        },
        {
          "internalType": "euint64",
          "name": "amount",
          "type": "bytes32"
        }
      ],
      "name": "confidentialTransfer",
      "outputs": [
        {
          "internalType": "euint64",
          "name": "",
          "type": "bytes32"
        }
      ],
      "stateMutability": "nonpayable",
      "type": "function"
    },
    {
      "inputs": [
        {
          "internalType": "address",
          "name": "to",
          "type": "address"
        },
        {
          "internalType": "euint64",
          "name": "amount",
          "type": "bytes32"
        },
        {
          "internalType": "bytes",
          "name": "data",
          "type": "bytes"
        }
      ],
      "name": "confidentialTransferAndCall",
      "outputs": [
        {
          "internalType": "euint64",
          "name": "transferred",
          "type": "bytes32"
        }
      ],
      "stateMutability": "nonpayable",
      "type": "function"
    },
    {
      "inputs": [
        {
          "internalType": "address",
          "name": "to",
          "type": "address"
        },
        {
          "internalType": "externalEuint64",
          "name": "encryptedAmount",
          "type": "bytes32"
        },
        {
          "internalType": "bytes",
          "name": "inputProof",
          "type": "bytes"
        },
        {
          "internalType": "bytes",
          "name": "data",
          "type": "bytes"
        }
      ],
      "name": "confidentialTransferAndCall",
      "outputs": [
        {
          "internalType": "euint64",
          "name": "transferred",
          "type": "bytes32"
        }
      ],
      "stateMutability": "nonpayable",
      "type": "function"
    },
    {
      "inputs": [
        {
          "internalType": "address",
          "name": "from",
          "type": "address"
        },
        {
          "internalType": "address",
          "name": "to",
          "type": "address"
        },
        {
          "internalType": "externalEuint64",
          "name": "encryptedAmount",
          "type": "bytes32"
        },
        {
          "internalType": "bytes",
          "name": "inputProof",
          "type": "bytes"
        }
      ],
      "name": "confidentialTransferFrom",
      "outputs": [
        {
          "internalType": "euint64",
          "name": "transferred",
          "type": "bytes32"
        }
      ],
      "stateMutability": "nonpayable",
      "type": "function"
    },
    {
      "inputs": [
        {
          "internalType": "address",
          "name": "from",
          "type": "address"
        },
        {
          "internalType": "address",
          "name": "to",
          "type": "address"
        },
        {
          "internalType": "euint64",
          "name": "amount",
          "type": "bytes32"
        }
      ],
      "name": "confidentialTransferFrom",
      "outputs": [
        {
          "internalType": "euint64",
          "name": "transferred",
          "type": "bytes32"
        }
      ],
      "stateMutability": "nonpayable",
      "type": "function"
    },
    {
      "inputs": [
        {
          "internalType": "address",
          "name": "from",
          "type": "address"
        },
        {
          "internalType": "address",
          "name": "to",
          "type": "address"
        },
        {
          "internalType": "externalEuint64",
          "name": "encryptedAmount",
          "type": "bytes32"
        },
        {
          "internalType": "bytes",
          "name": "inputProof",
          "type": "bytes"
        },
        {
          "internalType": "bytes",
          "name": "data",
          "type": "bytes"
        }
      ],
      "name": "confidentialTransferFromAndCall",
      "outputs": [
        {
          "internalType": "euint64",
          "name": "transferred",
          "type": "bytes32"
        }
      ],
      "stateMutability": "nonpayable",
      "type": "function"
    },
    {
      "inputs": [
        {
          "internalType": "address",
          "name": "from",
          "type": "address"
        },
        {
          "internalType": "address",
          "name": "to",
          "type": "address"
        },
        {
          "internalType": "euint64",
          "name": "amount",
          "type": "bytes32"
        },
        {
          "internalType": "bytes",
          "name": "data",
          "type": "bytes"
        }
      ],
      "name": "confidentialTransferFromAndCall",
      "outputs": [
        {
          "internalType": "euint64",
          "name": "transferred",
          "type": "bytes32"
        }
      ],
      "stateMutability": "nonpayable",
      "type": "function"
    },
    {
      "inputs": [],
      "name": "decimals",
      "outputs": [
        {
          "internalType": "uint8",
          "name": "",
          "type": "uint8"
        }
      ],
      "stateMutability": "view",
      "type": "function"
    },
    {
      "inputs": [
        {
          "internalType": "euint64",
          "name": "encryptedAmount",
          "type": "bytes32"
        }
      ],
      "name": "discloseEncryptedAmount",
      "outputs": [],
      "stateMutability": "nonpayable",
      "type": "function"
    },
    {
      "inputs": [
        {
          "internalType": "uint256",
          "name": "requestId",
          "type": "uint256"
        },
        {
          "internalType": "uint64",
          "name": "amount",
          "type": "uint64"
        },
        {
          "internalType": "bytes[]",
          "name": "signatures",
          "type": "bytes[]"
        }
      ],
      "name": "finalizeDiscloseEncryptedAmount",
      "outputs": [],
      "stateMutability": "nonpayable",
      "type": "function"
    },
    {
      "inputs": [
        {
          "internalType": "address",
          "name": "holder",
          "type": "address"
        },
        {
          "internalType": "address",
          "name": "spender",
          "type": "address"
        }
      ],
      "name": "isOperator",
      "outputs": [
        {
          "internalType": "bool",
          "name": "",
          "type": "bool"
        }
      ],
      "stateMutability": "view",
      "type": "function"
    },
    {
      "inputs": [
        {
          "internalType": "address",
          "name": "to",
          "type": "address"
        },
        {
          "internalType": "externalEuint64",
          "name": "amount",
          "type": "bytes32"
        },
        {
          "internalType": "bytes",
          "name": "inputProof",
          "type": "bytes"
        }
      ],
      "name": "mint",
      "outputs": [],
      "stateMutability": "nonpayable",
      "type": "function"
    },
    {
      "inputs": [],
      "name": "name",
      "outputs": [
        {
          "internalType": "string",
          "name": "",
          "type": "string"
        }
      ],
      "stateMutability": "view",
      "type": "function"
    },
    {
      "inputs": [],
      "name": "owner",
      "outputs": [
        {
          "internalType": "address",
          "name": "",
          "type": "address"
        }
      ],
      "stateMutability": "view",
      "type": "function"
    },
    {
      "inputs": [],
      "name": "renounceOwnership",
      "outputs": [],
      "stateMutability": "nonpayable",
      "type": "function"
    },
    {
      "inputs": [
        {
          "internalType": "address",
          "name": "operator",
          "type": "address"
        },
        {
          "internalType": "uint48",
          "name": "until",
          "type": "uint48"
        }
      ],
      "name": "setOperator",
      "outputs": [],
      "stateMutability": "nonpayable",
      "type": "function"
    },
    {
      "inputs": [
        {
          "internalType": "contract IConfidentialFungibleToken",
          "name": "fromToken",
          "type": "address"
        },
        {
          "internalType": "contract IConfidentialFungibleToken",
          "name": "toToken",
          "type": "address"
        },
        {
          "internalType": "externalEuint64",
          "name": "amountInput",
          "type": "bytes32"
        },
        {
          "internalType": "bytes",
          "name": "inputProof",
          "type": "bytes"
        }
      ],
      "name": "swapConfidentialForConfidential",
      "outputs": [],
      "stateMutability": "nonpayable",
      "type": "function"
    },
    {
      "inputs": [],
      "name": "symbol",
      "outputs": [
        {
          "internalType": "string",
          "name": "",
          "type": "string"
        }
      ],
      "stateMutability": "view",
      "type": "function"
    },
    {
      "inputs": [],
      "name": "tokenURI",
      "outputs": [
        {
          "internalType": "string",
          "name": "",
          "type": "string"
        }
      ],
      "stateMutability": "view",
      "type": "function"
    },
    {
      "inputs": [
        {
          "internalType": "address",
          "name": "newOwner",
          "type": "address"
        }
      ],
      "name": "transferOwnership",
      "outputs": [],
      "stateMutability": "nonpayable",
      "type": "function"
    }
  ],
  "transactionHash": "0x526c96171782d6ae0413a3a2f47dd499808d62a9ead91f66a283a6a692af18a0",
  "args": [
    "0xd857e1E4E3c042B1cF0996E89A54C686bA87f8E2",
    "MyConfidentialToken",
    "MCT",
    "https://example.com/metadata/"
  ],
  "numDeployments": 1,
  "solcInputHash": "dee333371db32516375aa95cae052de1",
  "bytecode": "0x60806040523461066157612ba08038038061001981610684565b92833981016080828203126106615781516001600160a01b038116908190036106615760208301516001600160401b038111610661578261005b9185016106a9565b60408401519093906001600160401b038111610661578361007d9183016106a9565b60608201519093906001600160401b0381116106615761009d92016106a9565b83519091906001600160401b0381116104b457600454600181811c91168015610657575b602082101461049657601f81116105f4575b50602094601f8211600114610591579481929394955f92610586575b50508160011b915f199060031b1c1916176004555b82516001600160401b0381116104b457600554600181811c9116801561057c575b602082101461049657601f8111610536575b506020601f82116001146104d357819293945f926104c8575b50508160011b915f199060031b1c1916176005555b81516001600160401b0381116104b457600654600181811c911680156104aa575b602082101461049657601f8111610433575b50602092601f82116001146103d257928192935f926103c7575b50508160011b915f199060031b1c1916176006555b80156103b457600780546001600160a01b0319811683179091556001600160a01b03167f8be0079c531659141344cd1fd0a4f28419497f9722a3daafe3b4186f6b6457e05f80a35f6060610219610665565b828152826020820152826040820152015273bc91f3dad1a5f19f8390c400196e58073b6a0bc46060610249610665565b73687820221192c5b662b25367f70076a37bc79b6c80825273848b0066793bcc60346da1f49049357399b8d59560208301819052731364cbbf2cdf5032c47d8226a6f6fbd2afcdacac604080850182905294909301949094527fed8d60e34876f751cc8b014c560745351147d9de11b9347c854e881b128ea60080546001600160a01b031990811690921790557fed8d60e34876f751cc8b014c560745351147d9de11b9347c854e881b128ea601805482169094179093557fed8d60e34876f751cc8b014c560745351147d9de11b9347c854e881b128ea6028054841690911790557fed8d60e34876f751cc8b014c560745351147d9de11b9347c854e881b128ea6038054831673bc91f3dad1a5f19f8390c400196e58073b6a0bc41790557f5ea69329017273582817d320489fbd94f775580e90c092699ca6f3d12fdf7d00805490921673a02cda4ca3a71d7c46997716f4283aa851c2881217909155516124a590816106fb8239f35b631e4fbdf760e01b5f525f60045260245ffd5b015190505f806101b2565b601f1982169360065f52805f20915f5b86811061041b5750836001959610610403575b505050811b016006556101c7565b01515f1960f88460031b161c191690555f80806103f5565b919260206001819286850151815501940192016103e2565b60065f527ff652222313e28459528d920b65115c16c04f3efc82aaedc97be59f3f377c0d3f601f830160051c8101916020841061048c575b601f0160051c01905b8181106104815750610198565b5f8155600101610474565b909150819061046b565b634e487b7160e01b5f52602260045260245ffd5b90607f1690610186565b634e487b7160e01b5f52604160045260245ffd5b015190505f80610150565b601f1982169060055f52805f20915f5b81811061051e57509583600195969710610506575b505050811b01600555610165565b01515f1960f88460031b161c191690555f80806104f8565b9192602060018192868b0151815501940192016104e3565b60055f5260205f20601f830160051c81019160208410610572575b601f0160051c01905b8181106105675750610137565b5f815560010161055a565b9091508190610551565b90607f1690610125565b015190505f806100ef565b601f1982169560045f52805f20915f5b8881106105dc575083600195969798106105c4575b505050811b01600455610104565b01515f1960f88460031b161c191690555f80806105b6565b919260206001819286850151815501940192016105a1565b60045f527f8a35acfbc15ff81a39ae7d344fd709f28e8600b4aa8c65c6b64bfe7fe36bd19b601f830160051c8101916020841061064d575b601f0160051c01905b81811061064257506100d3565b5f8155600101610635565b909150819061062c565b90607f16906100c1565b5f80fd5b60405190608082016001600160401b038111838210176104b457604052565b6040519190601f01601f191682016001600160401b038111838210176104b457604052565b81601f82011215610661578051906001600160401b0382116104b4576106d8601f8301601f1916602001610684565b928284526020838301011161066157815f9260208093018386015e830101529056fe60806040526004361015610011575f80fd5b5f3560e01c806306fdde03146101a45780632fb74e621461019f578063313ce5671461019a578063344ff1011461019557806334c45743146101905780633c130d901461018b578063537d3c501461018657806354095227146101815780635bebed7e1461017c578063715018a6146101775780637279e264146101725780638da5cb5b1461016d57806395d89b4114610168578063b6363cf214610163578063b6483bab1461015e578063c535803c14610159578063c7b8a75e14610154578063d4febb961461014f578063d539685c1461014a578063d747d60814610145578063de64211914610140578063deb6a0791461013b578063e064b9bb14610136578063eb3155b5146101315763f2fde38b1461012c575f80fd5b611074565b611021565b610fb4565b610f97565b610f19565b610edd565b610d18565b610c79565b610bfe565b6109ec565b610999565b61091f565b61086a565b610844565b610781565b61065b565b610620565b610603565b610524565b61046f565b6103e0565b6103a5565b61038a565b610321565b6101ef565b5f9103126101b357565b5f80fd5b805180835260209291819084018484015e5f828201840152601f01601f1916010190565b9060206101ec9281815201906101b7565b90565b346101b3575f3660031901126101b3576040515f6004548060011c90600181169081156102d8575b6020831082146102c45782855260208501919081156102ab5750600114610259575b61025584610249818603826106d5565b604051918291826101db565b0390f35b60045f9081529250907f8a35acfbc15ff81a39ae7d344fd709f28e8600b4aa8c65c6b64bfe7fe36bd19b5b8184106102975750500161024982610239565b805484840152602090930192600101610284565b60ff191682525090151560051b01905061024982610239565b634e487b7160e01b5f52602260045260245ffd5b91607f1691610217565b6001600160a01b038116036101b357565b9181601f840112156101b35782359167ffffffffffffffff83116101b357602083818601950101116101b357565b346101b35760603660031901126101b35760043561033e816102e2565b6024356044359167ffffffffffffffff83116101b35761037b6103829261037561036e60209636906004016102f3565b3691610730565b9061142d565b90336115c0565b604051908152f35b346101b3575f3660031901126101b357602060405160068152f35b346101b35760203660031901126101b3576001600160a01b036004356103ca816102e2565b165f525f602052602060405f2054604051908152f35b346101b35760a03660031901126101b3576004356103fd816102e2565b6024359061040a826102e2565b6044359160643567ffffffffffffffff81116101b35761042e9036906004016102f3565b608435939167ffffffffffffffff85116101b3576102559561045761045f9636906004016102f3565b959094611135565b6040519081529081906020820190565b346101b3575f3660031901126101b3576040515f6006548060011c906001811690811561051a575b6020831082146102c45782855260208501919081156102ab57506001146104c85761025584610249818603826106d5565b60065f9081529250907ff652222313e28459528d920b65115c16c04f3efc82aaedc97be59f3f377c0d3f5b8184106105065750500161024982610239565b8054848401526020909301926001016104f3565b91607f1691610497565b346101b35760603660031901126101b357600435610541816102e2565b6024356044359167ffffffffffffffff83116101b3576105686105859336906004016102f3565b92909161057f338361057a3382611dab565b6111be565b336115f3565b6001600160a01b035f5160206124595f395f51905f52541690813b156101b357604051630f8e573b60e21b815260048101829052336024820152915f908390604490829084905af19182156105fe57610255926105ee575b506040519081529081906020820190565b5f6105f8916106d5565b5f6105dd565b61140c565b346101b3575f3660031901126101b3576020600354604051908152f35b346101b35760403660031901126101b3576020610382600435610642816102e2565b60243590610655338361057a3382611dab565b336115c0565b346101b3575f3660031901126101b3576106736116a0565b5f6001600160a01b0360075473ffffffffffffffffffffffffffffffffffffffff198116600755167f8be0079c531659141344cd1fd0a4f28419497f9722a3daafe3b4186f6b6457e08280a3005b634e487b7160e01b5f52604160045260245ffd5b90601f8019910116810190811067ffffffffffffffff8211176106f757604052565b6106c1565b67ffffffffffffffff81116106f75760051b60200190565b67ffffffffffffffff81116106f757601f01601f191660200190565b92919261073c82610714565b9161074a60405193846106d5565b8294818452818301116101b3578281602093845f960137010152565b9080601f830112156101b3578160206101ec93359101610730565b346101b35760603660031901126101b35760243567ffffffffffffffff811681036101b35760443567ffffffffffffffff81116101b357366023820112156101b3578060040135916107d2836106fc565b916107e060405193846106d5565b8383526024602084019460051b820101903682116101b35760248101945b828610610814576108128585600435611201565b005b853567ffffffffffffffff81116101b357602091610839839260243691870101610766565b8152019501946107fe565b346101b3575f3660031901126101b35760206001600160a01b0360075416604051908152f35b346101b3575f3660031901126101b3576040515f6005548060011c9060018116908115610915575b6020831082146102c45782855260208501919081156102ab57506001146108c35761025584610249818603826106d5565b60055f9081529250907f036b6384b5eca791c62761152d0c79bb0604c104a5fb6f4eb0703f3154bb3db05b8184106109015750500161024982610239565b8054848401526020909301926001016108ee565b91607f1691610892565b346101b35760403660031901126101b3576020610953600435610941816102e2565b6024359061094e826102e2565b611373565b6040519015158152f35b60606003198201126101b357600435610975816102e2565b91602435916044359067ffffffffffffffff82116101b3576101ec91600401610766565b346101b3576108126109be6109ad3661095d565b906109b99392936116a0565b61142d565b6109c83082611ff0565b6109dc6001600160a01b03831615156115a6565b6109e68183611757565b50611ff0565b346101b35760203660031901126101b357600435610a0a3382611dab565b80610be9575b610a1c908233916111be565b60408051610a2a82826106d5565b6001815260208101601f198301368237815115610be4578390527f5ea69329017273582817d320489fbd94f775580e90c092699ca6f3d12fdf7d015490610a97610a8b610a8b5f5160206124595f395f51905f52546001600160a01b031690565b6001600160a01b031690565b803b156101b3575f84518092637d6e912360e11b8252818381610abd8860048301612044565b03925af180156105fe57610bd0575b50610b04610a8b610a8b7f5ea69329017273582817d320489fbd94f775580e90c092699ca6f3d12fdf7d00546001600160a01b031690565b92833b156101b35751633263b83b60e01b8152925f908490818381610b35631c9e789960e21b888a60048501612055565b03925af19081156105fe57610bb393610b5492610bb6575b50826122da565b610ba5610b817f5ea69329017273582817d320489fbd94f775580e90c092699ca6f3d12fdf7d01546120b0565b7f5ea69329017273582817d320489fbd94f775580e90c092699ca6f3d12fdf7d0155565b5f52600260205260405f2090565b55005b80610bc45f610bca936106d5565b806101a9565b5f610b4d565b80610bc45f610bde936106d5565b5f610acc565b6113cc565b50610a1c610bf73083611dab565b9050610a10565b346101b35760803660031901126101b357600435610c1b816102e2565b602435610c27816102e2565b6064359160443567ffffffffffffffff84116101b357610c4e6105859436906004016102f3565b939092610c60338461057a3382611dab565b610c743382610c6f3382611373565b61110a565b6115f3565b346101b35760403660031901126101b357600435610c96816102e2565b6024359065ffffffffffff82168092036101b3576001600160a01b0390335f526001602052610cd98160405f20906001600160a01b03165f5260205260405f2090565b8365ffffffffffff1982541617905560405192835216907f921a218a75d18e8ec5704851e6b234a85725b21a2521ce889622c35dedc1fa1260203392a3005b346101b35760803660031901126101b357600435610d35816102e2565b602435610d41816102e2565b6044359160643567ffffffffffffffff81116101b357610d6d6001600160a01b039136906004016102f3565b604051635b1b1e7960e11b8152336004820152306024820152919390921690602081604481855afa9586156105fe57610375602095610df69561036e5f9a610dbc968c91610eb0575b50611417565b610dc68282611d57565b60405163eb3155b560e01b8152336004820152306024820152604481019190915294859283919082906064820190565b03925af19182156105fe575f92602092610e50928592610e88575b506001600160a01b031690610e268282611d57565b604051632df5f6bf60e11b8152336004820152602481019190915293849283919082906044820190565b03925af180156105fe57610e6057005b6108129060203d602011610e81575b610e7981836106d5565b81019061141e565b503d610e6f565b6001600160a01b03919250610ea990853d8711610e8157610e7981836106d5565b9190610e11565b610ed091508a3d8c11610ed6575b610ec881836106d5565b8101906113f4565b5f610db6565b503d610ebe565b346101b357610812610ef16109ad3661095d565b610efb3082611ff0565b610f0f6001600160a01b038316151561158c565b6109e68183611857565b346101b35760803660031901126101b357600435610f36816102e2565b6024359060443567ffffffffffffffff81116101b357610f5a9036906004016102f3565b909160643567ffffffffffffffff81116101b35761058594610375610f86610f909336906004016102f3565b9690953691610730565b90336115f3565b346101b35760203660031901126101b35761081230600435611ff0565b346101b35760803660031901126101b357600435610fd1816102e2565b60243590610fde826102e2565b6044359160643567ffffffffffffffff81116101b3576105859361037561100c61101b9336906004016102f3565b61036e3388610c6f3382611373565b916115c0565b346101b35760603660031901126101b357610585600435611041816102e2565b60243561104d816102e2565b60443591611060338461057a3382611dab565b61106f3382610c6f3382611373565b6115c0565b346101b35760203660031901126101b3576001600160a01b03600435611099816102e2565b6110a16116a0565b1680156110f7576001600160a01b036007548273ffffffffffffffffffffffffffffffffffffffff19821617600755167f8be0079c531659141344cd1fd0a4f28419497f9722a3daafe3b4186f6b6457e05f80a3005b631e4fbdf760e01b5f525f60045260245ffd5b15611113575050565b906001600160a01b038092631ae7729b60e11b5f52166004521660245260445ffd5b9291610375611154929361115a98979661036e3388610c6f3382611373565b916115f3565b906001600160a01b035f5160206124595f395f51905f525416803b156101b357604051630f8e573b60e21b815260048101849052336024820152905f908290818381604481015b03925af180156105fe576111b25750565b5f6111bc916106d5565b565b156111c7575050565b6001600160a01b03925063118f6e5360e31b5f526004521660245260445ffd5b156111ef5750565b630ab5f57d60e01b5f5260045260245ffd5b91825f527f5ea69329017273582817d320489fbd94f775580e90c092699ca6f3d12fdf7d0260205260405f20541561136457825f527f5ea69329017273582817d320489fbd94f775580e90c092699ca6f3d12fdf7d0260205260405f206040519081602082549182815201915f5260205f20905f5b81811061134e5750505091816112946112999361129d9503826106d5565b611f00565b1590565b61133f578161133c915f937f1af0453083661051f6e56e5c070792320652e612154bf9af8637bb1e7655b99d8580a27f83bbbc07896439e5d950a6cead04cbc676180af7a61cecf43f5296475057f57161132b611302845f52600260205260405f2090565b5492611310858515156111e7565b60405167ffffffffffffffff90911681529081906020820190565b0390a25f52600260205260405f2090565b55565b63cf6c44e960e01b5f5260045ffd5b8254845260209093019260019283019201611276565b63d66ca67560e01b5f5260045ffd5b6001600160a01b0316906001600160a01b038116821491821561139557505090565b65ffffffffffff9250906113c4915f52600160205260405f20906001600160a01b03165f5260205260405f2090565b541642111590565b634e487b7160e01b5f52603260045260245ffd5b8051821015610be45760209160051b010190565b908160209103126101b3575180151581036101b35790565b6040513d5f823e3d90fd5b156101b357565b908160209103126101b3575190565b61147891602091611458610a8b610a8b5f5160206124795f395f51905f52546001600160a01b031690565b905f60405180968195829463196d0b9b60e01b84523390600485016116fc565b03925af19081156105fe575f9161156d575b506114af610a8b610a8b5f5160206124595f395f51905f52546001600160a01b031690565b803b156101b357604051630f8e573b60e21b815260048101839052336024820152905f908290604490829084905af180156105fe57611559575b5061150e610a8b610a8b5f5160206124595f395f51905f52546001600160a01b031690565b803b156101b357604051630f8e573b60e21b815260048101839052306024820152905f908290604490829084905af180156105fe5761154b575090565b80610bc45f6101ec936106d5565b80610bc45f611567936106d5565b5f6114e9565b611586915060203d602011610e8157610e7981836106d5565b5f61148a565b1561159357565b631a9bbf8b60e11b5f525f60045260245ffd5b156115ad57565b636e41946d60e11b5f525f60045260245ffd5b906101ec92916115da6001600160a01b038216151561158c565b6115ee6001600160a01b03831615156115a6565b611995565b92949361160561160f929384866115c0565b9586848633611b91565b91602061161a611c49565b60646001600160a01b035f5160206124795f395f51905f525416955f6040519788948593637702dcff60e01b855260048501528b602485015260448401525af19283156105fe5761167e93611678915f91611681575b508096611cb7565b91611995565b50565b61169a915060203d602011610e8157610e7981836106d5565b5f611670565b6001600160a01b036007541633036116b457565b63118cdaa760e01b5f523360045260245ffd5b6101ec3082611ff0565b605411156116db57565b634e487b7160e01b5f52602160045260245ffd5b9060548210156116db5752565b939261172a906001600160a01b036111bc9460609488521660208701526080604087015260808601906101b7565b930160056116ef565b1561173b5750565b6001600160a01b0390636b8830d760e11b5f521660045260245ffd5b9190611787906117698160035461212e565b909190611775816116c7565b50600355611781611c49565b91612279565b826001600160a01b03829416908115805f146117ff576117a984600354611cb7565b6117b2816116c7565b506003555b156117ef575b506117c7826116c7565b505f7f67500e8d0ed826d2194f514dd0d8124f35648ab6e3fb5e6ed867134cffe661e98180a4565b6117f99083611ff0565b5f6117bd565b6118238461181d846001600160a01b03165f525f60205260405f2090565b546121ac565b61182c816116c7565b506118378382611ff0565b611851836001600160a01b03165f525f60205260405f2090565b556117b7565b91905f6001600160a01b03841661189b8115938484146118fd57806118816118939260035461212e565b92909261188d816116c7565b50600355565b611781611c49565b9485936118b66118ad86600354611cb7565b61188d816116c7565b156118ed575b506118c6836116c7565b507f67500e8d0ed826d2194f514dd0d8124f35648ab6e3fb5e6ed867134cffe661e98280a4565b6118f79084611ff0565b5f6118bc565b61195e8161191b896001600160a01b03165f525f60205260405f2090565b54611925816116c7565b5061194d6119475f5160206124795f395f51905f52546001600160a01b031690565b82611ff0565b6119598a821515611733565b6120c3565b91909161196a816116c7565b506119758982611ff0565b61198f896001600160a01b03165f525f60205260405f2090565b55611893565b929190926001600160a01b0381166119c0811593845f14611a9657806118816118939260035461212e565b9485936001600160a01b038216938415918215611a44576119e66118ad88600354611cb7565b15611a34575b5015611a24575b506119fd836116c7565b507f67500e8d0ed826d2194f514dd0d8124f35648ab6e3fb5e6ed867134cffe661e95f80a4565b611a2e9084611ff0565b5f6119f3565b611a3e9086611ff0565b5f6119ec565b611a628761181d866001600160a01b03165f525f60205260405f2090565b611a6b816116c7565b50611a768582611ff0565b611a90856001600160a01b03165f525f60205260405f2090565b556119e6565b611aec81611ab4866001600160a01b03165f525f60205260405f2090565b54611abe816116c7565b50611ae06119475f5160206124795f395f51905f52546001600160a01b031690565b61195987821515611733565b919091611af8816116c7565b50611b038682611ff0565b61198f866001600160a01b03165f525f60205260405f2090565b9390926001600160a01b038694938160a09895168752166020860152604085015260806060850152816080850152848401375f828201840152601f01601f1916010190565b3d15611b8c573d90611b7382610714565b91611b8160405193846106d5565b82523d5f602084013e565b606090565b9195949293909290863b15611c3a576020939291611bc49160405196879586956346083bfd60e01b875260048701611b1d565b03815f6001600160a01b0388165af15f9181611c19575b50611c155782611be9611b62565b8051919082611c0e57636e41946d60e11b5f526001600160a01b03821660045260245ffd5b9050602001fd5b9150565b611c3391925060203d602011610e8157610e7981836106d5565b905f611bdb565b505050505090506101ec612237565b5f60206001600160a01b035f5160206124795f395f51905f525416604460405180948193639cd07acb60e01b8352816004840152611c8b6024840160056116ef565b5af19081156105fe575f91611c9e575090565b6101ec915060203d602011610e8157610e7981836106d5565b5f602091611d24938115611d47575b8015611d39575b5f5160206124795f395f51905f52546040516303056db360e31b8152600481019390935260248301919091526001600160f81b031983166044830152909384926001600160a01b0390921691839182906064820190565b03925af19081156105fe575f91611c9e575090565b50611d42611c49565b611ccd565b9050611d51611c49565b90611cc6565b6001600160a01b035f5160206124595f395f51905f52541691823b156101b357604051630f8e573b60e21b815260048101929092526001600160a01b03166024820152905f908290818381604481016111a1565b5f5160206124595f395f51905f52546040516382027b6d60e01b815260048101929092526001600160a01b039283166024830152909160209183916044918391165afa9081156105fe575f91611dff575090565b6101ec915060203d602011610ed657610ec881836106d5565b90611e2282610714565b611e2f60405191826106d5565b8281528092611e40601f1991610714565b0190602036910137565b90602080835192838152019201905f5b818110611e675750505090565b8251845260209384019390920191600101611e5a565b91611e93611ea192606085526060850190611e4a565b9083820360208501526101b7565b906040818303910152815180825260208201916020808360051b8301019401925f915b838310611ed357505050505090565b9091929394602080611ef1600193601f1986820301875289516101b7565b97019301930191939290611ec4565b80515f905f905b808210611f9b57505091602091611f20611f86946122cc565b611f2981611e18565b906024858301375f611f68610a8b610a8b7fed8d60e34876f751cc8b014c560745351147d9de11b9347c854e881b128ea602546001600160a01b031690565b9260405196879586948593632c027b1360e21b855260048501611e7d565b03925af19081156105fe575f91611dff575090565b90916009611fc8611fac85876113e0565b51601e1a611fb9816116d1565b611fc2816116d1565b60ff1690565b1015611fe157611fd96001916122cc565b920190611f07565b63ce54a8d160e01b5f5260045ffd5b6001600160a01b035f5160206124595f395f51905f52541691823b156101b357604051635ca4b5b160e11b815260048101929092526001600160a01b03166024820152905f908290818381604481016111a1565b9060206101ec928181520190611e4a565b91612073906040929594958452606060208501526060840190611e4a565b7fffffffff00000000000000000000000000000000000000000000000000000000909416910152565b634e487b7160e01b5f52601160045260245ffd5b5f1981146120be5760010190565b61209c565b91909160206120dc6120d585846123cd565b9483611cb7565b9160646001600160a01b035f5160206124795f395f51905f525416935f6040519586948593637702dcff60e01b85528a6004860152602485015260448401525af19081156105fe575f91611c9e575090565b90919080612143575061213f612237565b9190565b9161214e90836121ac565b602061215a84836123cd565b9360646001600160a01b035f5160206124795f395f51905f525416935f6040519586948593637702dcff60e01b85528a6004860152602485015260448401525af19081156105fe575f91611c9e575090565b5f602091611d24938115612227575b8015612219575b5f5160206124795f395f51905f525460405163022f65e760e31b8152600481019390935260248301919091526001600160f81b031983166044830152909384926001600160a01b0390921691839182906064820190565b50612222611c49565b6121c2565b9050612231611c49565b906121bb565b5f60206001600160a01b035f5160206124795f395f51905f525416604460405180948193639cd07acb60e01b835260016004840152611c8b60248401836116ef565b9060646020925f6001600160a01b035f5160206124795f395f51905f5254166040519687958694637702dcff60e01b86526004860152602485015260448401525af19081156105fe575f91611c9e575090565b90602082018092116120be57565b805f527f5ea69329017273582817d320489fbd94f775580e90c092699ca6f3d12fdf7d0260205260405f20546123be575f527f5ea69329017273582817d320489fbd94f775580e90c092699ca6f3d12fdf7d0260205260405f2081519167ffffffffffffffff83116106f7576801000000000000000083116106f7578154838355808410612398575b5060206123759101915f5260205f2090565b5f5b8381106123845750505050565b600190602084519401938184015501612377565b825f528360205f2091820191015b8181106123b35750612363565b5f81556001016123a6565b633f06d22b60e01b5f5260045ffd5b5f602091611d24938115612448575b801561243a575b5f5160206124795f395f51905f5254604051631391547f60e01b8152600481019390935260248301919091526001600160f81b031983166044830152909384926001600160a01b0390921691839182906064820190565b50612443611c49565b6123e3565b9050612452611c49565b906123dc56feed8d60e34876f751cc8b014c560745351147d9de11b9347c854e881b128ea600ed8d60e34876f751cc8b014c560745351147d9de11b9347c854e881b128ea601a164736f6c634300081b000a",
  "devdoc": {
    "errors": {
      "ConfidentialFungibleTokenInvalidGatewayRequest(uint256)": [
        {
          "details": "The given gateway request ID `requestId` is invalid."
        }
      ],
      "ConfidentialFungibleTokenInvalidReceiver(address)": [
        {
          "details": "The given receiver `receiver` is invalid for transfers."
        }
      ],
      "ConfidentialFungibleTokenInvalidSender(address)": [
        {
          "details": "The given sender `sender` is invalid for transfers."
        }
      ],
      "ConfidentialFungibleTokenUnauthorizedCaller(address)": [
        {
          "details": "The given caller `caller` is not authorized for the current operation."
        }
      ],
      "ConfidentialFungibleTokenUnauthorizedSpender(address,address)": [
        {
          "details": "The given holder `holder` is not authorized to spend on behalf of `spender`."
        }
      ],
      "ConfidentialFungibleTokenUnauthorizedUseOfEncryptedAmount(bytes32,address)": [
        {
          "details": "The caller `user` does not have access to the encrypted amount `amount`. NOTE: Try using the equivalent transfer function with an input proof."
        }
      ],
      "ConfidentialFungibleTokenZeroBalance(address)": [
        {
          "details": "The holder `holder` is trying to send tokens but has a balance of 0."
        }
      ],
      "OwnableInvalidOwner(address)": [
        {
          "details": "The owner is not a valid owner account. (eg. `address(0)`)"
        }
      ],
      "OwnableUnauthorizedAccount(address)": [
        {
          "details": "The caller account is not authorized to perform an operation."
        }
      ]
    },
    "events": {
      "AmountDisclosed(bytes32,uint64)": {
        "details": "Emitted when an encrypted amount is disclosed. Accounts with access to the encrypted amount `encryptedAmount` that is also accessible to this contract should be able to disclose the amount. This functionality is implementation specific."
      },
      "ConfidentialTransfer(address,address,bytes32)": {
        "details": "Emitted when a confidential transfer is made from `from` to `to` of encrypted amount `amount`."
      },
      "OperatorSet(address,address,uint48)": {
        "details": "Emitted when the expiration timestamp for an operator `operator` is updated for a given `holder`. The operator may move any amount of tokens on behalf of the holder until the timestamp `until`."
      }
    },
    "kind": "dev",
    "methods": {
      "authorizeSelf(bytes32)": {
        "details": "Helps avoid ACLNotAllowed by doing explicit on-chain authorization.",
        "params": {
          "balanceHandle": "Encrypted balance handle to authorize."
        }
      },
      "confidentialBalanceOf(address)": {
        "details": "Returns the confidential balance of the account `account`."
      },
      "confidentialTotalSupply()": {
        "details": "Returns the confidential total supply of the token."
      },
      "confidentialTransfer(address,bytes32)": {
        "details": "Similar to {confidentialTransfer-address-externalEuint64-bytes} but without an input proof. The caller *must* already be allowed by ACL for the given `amount`."
      },
      "confidentialTransfer(address,bytes32,bytes)": {
        "details": "Transfers the encrypted amount `encryptedAmount` to `to` with the given input proof `inputProof`. Returns the encrypted amount that was actually transferred."
      },
      "confidentialTransferAndCall(address,bytes32,bytes)": {
        "details": "Similar to {confidentialTransfer-address-euint64} but with a callback to `to` after the transfer."
      },
      "confidentialTransferAndCall(address,bytes32,bytes,bytes)": {
        "details": "Similar to {confidentialTransfer-address-externalEuint64-bytes} but with a callback to `to` after the transfer. The callback is made to the {IConfidentialFungibleTokenReceiver-onConfidentialTransferReceived} function on the to address with the actual transferred amount (may differ from the given `encryptedAmount`) and the given data `data`."
      },
      "confidentialTransferFrom(address,address,bytes32)": {
        "details": "Similar to {confidentialTransferFrom-address-address-externalEuint64-bytes} but without an input proof. The caller *must* be already allowed by ACL for the given `amount`."
      },
      "confidentialTransferFrom(address,address,bytes32,bytes)": {
        "details": "Transfers the encrypted amount `encryptedAmount` from `from` to `to` with the given input proof `inputProof`. `msg.sender` must be either `from` or an operator for `from`. Returns the encrypted amount that was actually transferred."
      },
      "confidentialTransferFromAndCall(address,address,bytes32,bytes)": {
        "details": "Similar to {confidentialTransferFrom-address-address-euint64} but with a callback to `to` after the transfer."
      },
      "confidentialTransferFromAndCall(address,address,bytes32,bytes,bytes)": {
        "details": "Similar to {confidentialTransferFrom-address-address-externalEuint64-bytes} but with a callback to `to` after the transfer."
      },
      "decimals()": {
        "details": "Returns the number of decimals of the token. Recommended to be 6."
      },
      "discloseEncryptedAmount(bytes32)": {
        "details": "Discloses an encrypted amount `encryptedAmount` publicly via an {IConfidentialFungibleToken-AmountDisclosed} event. The caller and this contract must be authorized to use the encrypted amount on the ACL. NOTE: This is an asynchronous operation where the actual decryption happens off-chain and {finalizeDiscloseEncryptedAmount} is called with the result."
      },
      "finalizeDiscloseEncryptedAmount(uint256,uint64,bytes[])": {
        "details": "May only be called by the gateway contract. Finalizes a disclose encrypted amount request."
      },
      "isOperator(address,address)": {
        "details": "Returns true if `spender` is currently an operator for `holder`."
      },
      "name()": {
        "details": "Returns the name of the token."
      },
      "owner()": {
        "details": "Returns the address of the current owner."
      },
      "renounceOwnership()": {
        "details": "Leaves the contract without owner. It will not be possible to call `onlyOwner` functions. Can only be called by the current owner. NOTE: Renouncing ownership will leave the contract without an owner, thereby disabling any functionality that is only available to the owner."
      },
      "setOperator(address,uint48)": {
        "details": "Sets `operator` as an operator for `holder` until the timestamp `until`. NOTE: An operator may transfer any amount of tokens on behalf of a holder while approved."
      },
      "symbol()": {
        "details": "Returns the symbol of the token."
      },
      "tokenURI()": {
        "details": "Returns the token URI."
      },
      "transferOwnership(address)": {
        "details": "Transfers ownership of the contract to a new account (`newOwner`). Can only be called by the current owner."
      }
    },
    "version": 1
  },
  "userdoc": {
    "errors": {
      "HandlesAlreadySavedForRequestID()": [
        {
          "notice": "Returned if some handles were already saved for corresponding ID."
        }
      ],
      "InvalidKMSSignatures()": [
        {
          "notice": "Returned if the returned KMS signatures are not valid."
        }
      ],
      "NoHandleFoundForRequestID()": [
        {
          "notice": "Returned if there was not handle found for the requested ID."
        }
      ],
      "UnsupportedHandleType()": [
        {
          "notice": "Returned if the requested handle to be decrypted is not of a supported type."
        }
      ]
    },
    "events": {
      "DecryptionFulfilled(uint256)": {
        "notice": "This event is emitted when requested decryption has been fulfilled."
      }
    },
    "kind": "user",
    "methods": {
      "authorizeSelf(bytes32)": {
        "notice": "Let a holder authorize this token contract to operate on their encrypted balance."
      }
    },
    "version": 1
  },
  "storageLayout": {
    "storage": [
      {
        "astId": 39380,
        "contract": "contracts/ConfidentialFungibleTokenMintableBurnable.sol:ConfidentialFungibleTokenMintableBurnable",
        "label": "_balances",
        "offset": 0,
        "slot": "0",
        "type": "t_mapping(t_address,t_userDefinedValueType(euint64)44511)"
      },
      {
        "astId": 39386,
        "contract": "contracts/ConfidentialFungibleTokenMintableBurnable.sol:ConfidentialFungibleTokenMintableBurnable",
        "label": "_operators",
        "offset": 0,
        "slot": "1",
        "type": "t_mapping(t_address,t_mapping(t_address,t_uint48))"
      },
      {
        "astId": 39391,
        "contract": "contracts/ConfidentialFungibleTokenMintableBurnable.sol:ConfidentialFungibleTokenMintableBurnable",
        "label": "_requestHandles",
        "offset": 0,
        "slot": "2",
        "type": "t_mapping(t_uint256,t_userDefinedValueType(euint64)44511)"
      },
      {
        "astId": 39394,
        "contract": "contracts/ConfidentialFungibleTokenMintableBurnable.sol:ConfidentialFungibleTokenMintableBurnable",
        "label": "_totalSupply",
        "offset": 0,
        "slot": "3",
        "type": "t_userDefinedValueType(euint64)44511"
      },
      {
        "astId": 39396,
        "contract": "contracts/ConfidentialFungibleTokenMintableBurnable.sol:ConfidentialFungibleTokenMintableBurnable",
        "label": "_name",
        "offset": 0,
        "slot": "4",
        "type": "t_string_storage"
      },
      {
        "astId": 39398,
        "contract": "contracts/ConfidentialFungibleTokenMintableBurnable.sol:ConfidentialFungibleTokenMintableBurnable",
        "label": "_symbol",
        "offset": 0,
        "slot": "5",
        "type": "t_string_storage"
      },
      {
        "astId": 39400,
        "contract": "contracts/ConfidentialFungibleTokenMintableBurnable.sol:ConfidentialFungibleTokenMintableBurnable",
        "label": "_tokenURI",
        "offset": 0,
        "slot": "6",
        "type": "t_string_storage"
      },
      {
        "astId": 40673,
        "contract": "contracts/ConfidentialFungibleTokenMintableBurnable.sol:ConfidentialFungibleTokenMintableBurnable",
        "label": "_owner",
        "offset": 0,
        "slot": "7",
        "type": "t_address"
      },
      {
        "astId": 40957,
        "contract": "contracts/ConfidentialFungibleTokenMintableBurnable.sol:ConfidentialFungibleTokenMintableBurnable",
        "label": "_receivers",
        "offset": 0,
        "slot": "8",
        "type": "t_mapping(t_uint256,t_address)"
      },
      {
        "astId": 40960,
        "contract": "contracts/ConfidentialFungibleTokenMintableBurnable.sol:ConfidentialFungibleTokenMintableBurnable",
        "label": "_fromToken",
        "offset": 0,
        "slot": "9",
        "type": "t_contract(IConfidentialFungibleToken)39333"
      },
      {
        "astId": 40963,
        "contract": "contracts/ConfidentialFungibleTokenMintableBurnable.sol:ConfidentialFungibleTokenMintableBurnable",
        "label": "_toToken",
        "offset": 0,
        "slot": "10",
        "type": "t_contract(IERC20)40894"
      }
    ],
    "types": {
      "t_address": {
        "encoding": "inplace",
        "label": "address",
        "numberOfBytes": "20"
      },
      "t_contract(IConfidentialFungibleToken)39333": {
        "encoding": "inplace",
        "label": "contract IConfidentialFungibleToken",
        "numberOfBytes": "20"
      },
      "t_contract(IERC20)40894": {
        "encoding": "inplace",
        "label": "contract IERC20",
        "numberOfBytes": "20"
      },
      "t_mapping(t_address,t_mapping(t_address,t_uint48))": {
        "encoding": "mapping",
        "key": "t_address",
        "label": "mapping(address => mapping(address => uint48))",
        "numberOfBytes": "32",
        "value": "t_mapping(t_address,t_uint48)"
      },
      "t_mapping(t_address,t_uint48)": {
        "encoding": "mapping",
        "key": "t_address",
        "label": "mapping(address => uint48)",
        "numberOfBytes": "32",
        "value": "t_uint48"
      },
      "t_mapping(t_address,t_userDefinedValueType(euint64)44511)": {
        "encoding": "mapping",
        "key": "t_address",
        "label": "mapping(address => euint64)",
        "numberOfBytes": "32",
        "value": "t_userDefinedValueType(euint64)44511"
      },
      "t_mapping(t_uint256,t_address)": {
        "encoding": "mapping",
        "key": "t_uint256",
        "label": "mapping(uint256 => address)",
        "numberOfBytes": "32",
        "value": "t_address"
      },
      "t_mapping(t_uint256,t_userDefinedValueType(euint64)44511)": {
        "encoding": "mapping",
        "key": "t_uint256",
        "label": "mapping(uint256 => euint64)",
        "numberOfBytes": "32",
        "value": "t_userDefinedValueType(euint64)44511"
      },
      "t_string_storage": {
        "encoding": "bytes",
        "label": "string",
        "numberOfBytes": "32"
      },
      "t_uint256": {
        "encoding": "inplace",
        "label": "uint256",
        "numberOfBytes": "32"
      },
      "t_uint48": {
        "encoding": "inplace",
        "label": "uint48",
        "numberOfBytes": "6"
      },
      "t_userDefinedValueType(euint64)44511": {
        "encoding": "inplace",
        "label": "euint64",
        "numberOfBytes": "32"
      }
    }
  }
}