{
  "address": "0x53863458FE0076172f3826bcf76C06961D5128cB",
  "abi": [
    {
      "inputs": [
        {
          "internalType": "address",
          "name": "_token0",
          "type": "address"
        },
        {
          "internalType": "address",
          "name": "_token1",
          "type": "address"
        },
        {
          "internalType": "address",
          "name": "owner",
          "type": "address"
        }
      ],
      "stateMutability": "nonpayable",
      "type": "constructor"
    },
    {
      "inputs": [
        {
          "internalType": "address",
          "name": "owner",
          "type": "address"
        }
      ],
      "name": "OwnableInvalidOwner",
      "type": "error"
    },
    {
      "inputs": [
        {
          "internalType": "address",
          "name": "account",
          "type": "address"
        }
      ],
      "name": "OwnableUnauthorizedAccount",
      "type": "error"
    },
    {
      "anonymous": false,
      "inputs": [
        {
          "indexed": true,
          "internalType": "address",
          "name": "provider",
          "type": "address"
        },
        {
          "indexed": false,
          "internalType": "uint256",
          "name": "amount0",
          "type": "uint256"
        },
        {
          "indexed": false,
          "internalType": "uint256",
          "name": "amount1",
          "type": "uint256"
        }
      ],
      "name": "LiquidityAdded",
      "type": "event"
    },
    {
      "anonymous": false,
      "inputs": [
        {
          "indexed": true,
          "internalType": "address",
          "name": "provider",
          "type": "address"
        },
        {
          "indexed": false,
          "internalType": "uint256",
          "name": "amount0",
          "type": "uint256"
        },
        {
          "indexed": false,
          "internalType": "uint256",
          "name": "amount1",
          "type": "uint256"
        }
      ],
      "name": "LiquidityRemoved",
      "type": "event"
    },
    {
      "anonymous": false,
      "inputs": [
        {
          "indexed": true,
          "internalType": "address",
          "name": "previousOwner",
          "type": "address"
        },
        {
          "indexed": true,
          "internalType": "address",
          "name": "newOwner",
          "type": "address"
        }
      ],
      "name": "OwnershipTransferred",
      "type": "event"
    },
    {
      "anonymous": false,
      "inputs": [
        {
          "indexed": true,
          "internalType": "address",
          "name": "user",
          "type": "address"
        },
        {
          "indexed": true,
          "internalType": "address",
          "name": "tokenIn",
          "type": "address"
        },
        {
          "indexed": true,
          "internalType": "address",
          "name": "tokenOut",
          "type": "address"
        }
      ],
      "name": "Swap",
      "type": "event"
    },
    {
      "inputs": [
        {
          "internalType": "externalEuint64",
          "name": "amount0",
          "type": "bytes32"
        },
        {
          "internalType": "bytes",
          "name": "amount0Proof",
          "type": "bytes"
        },
        {
          "internalType": "externalEuint64",
          "name": "amount1",
          "type": "bytes32"
        },
        {
          "internalType": "bytes",
          "name": "amount1Proof",
          "type": "bytes"
        }
      ],
      "name": "addLiquidity",
      "outputs": [
        {
          "internalType": "euint64",
          "name": "liquidity",
          "type": "bytes32"
        }
      ],
      "stateMutability": "nonpayable",
      "type": "function"
    },
    {
      "inputs": [
        {
          "internalType": "externalEuint64",
          "name": "amountIn",
          "type": "bytes32"
        },
        {
          "internalType": "bytes",
          "name": "amountInProof",
          "type": "bytes"
        },
        {
          "internalType": "address",
          "name": "inputToken",
          "type": "address"
        }
      ],
      "name": "getAmountOut",
      "outputs": [],
      "stateMutability": "nonpayable",
      "type": "function"
    },
    {
      "inputs": [],
      "name": "getEncryptedDenominator",
      "outputs": [
        {
          "internalType": "euint64",
          "name": "",
          "type": "bytes32"
        }
      ],
      "stateMutability": "view",
      "type": "function"
    },
    {
      "inputs": [
        {
          "internalType": "address",
          "name": "account",
          "type": "address"
        }
      ],
      "name": "getEncryptedLPBalance",
      "outputs": [
        {
          "internalType": "euint64",
          "name": "",
          "type": "bytes32"
        }
      ],
      "stateMutability": "view",
      "type": "function"
    },
    {
      "inputs": [],
      "name": "getEncryptedNumerator",
      "outputs": [
        {
          "internalType": "euint64",
          "name": "",
          "type": "bytes32"
        }
      ],
      "stateMutability": "view",
      "type": "function"
    },
    {
      "inputs": [],
      "name": "getEncryptedReserve0",
      "outputs": [
        {
          "internalType": "euint64",
          "name": "",
          "type": "bytes32"
        }
      ],
      "stateMutability": "view",
      "type": "function"
    },
    {
      "inputs": [],
      "name": "getEncryptedReserve1",
      "outputs": [
        {
          "internalType": "euint64",
          "name": "",
          "type": "bytes32"
        }
      ],
      "stateMutability": "view",
      "type": "function"
    },
    {
      "inputs": [],
      "name": "getEncryptedTotalSupply",
      "outputs": [
        {
          "internalType": "euint64",
          "name": "",
          "type": "bytes32"
        }
      ],
      "stateMutability": "view",
      "type": "function"
    },
    {
      "inputs": [],
      "name": "owner",
      "outputs": [
        {
          "internalType": "address",
          "name": "",
          "type": "address"
        }
      ],
      "stateMutability": "view",
      "type": "function"
    },
    {
      "inputs": [
        {
          "internalType": "externalEuint64",
          "name": "liquidityAmount",
          "type": "bytes32"
        },
        {
          "internalType": "bytes",
          "name": "liquidityProof",
          "type": "bytes"
        }
      ],
      "name": "removeLiquidity",
      "outputs": [
        {
          "internalType": "euint64",
          "name": "amount0",
          "type": "bytes32"
        },
        {
          "internalType": "euint64",
          "name": "amount1",
          "type": "bytes32"
        }
      ],
      "stateMutability": "nonpayable",
      "type": "function"
    },
    {
      "inputs": [],
      "name": "renounceOwnership",
      "outputs": [],
      "stateMutability": "nonpayable",
      "type": "function"
    },
    {
      "inputs": [
        {
          "internalType": "externalEuint64",
          "name": "amountIn",
          "type": "bytes32"
        },
        {
          "internalType": "bytes",
          "name": "amountInProof",
          "type": "bytes"
        },
        {
          "internalType": "externalEuint64",
          "name": "expectedAmountOut",
          "type": "bytes32"
        },
        {
          "internalType": "bytes",
          "name": "expectedAmountOutProof",
          "type": "bytes"
        },
        {
          "internalType": "externalEuint64",
          "name": "minAmountOut",
          "type": "bytes32"
        },
        {
          "internalType": "bytes",
          "name": "minAmountOutProof",
          "type": "bytes"
        },
        {
          "internalType": "address",
          "name": "inputToken",
          "type": "address"
        },
        {
          "internalType": "address",
          "name": "to",
          "type": "address"
        }
      ],
      "name": "swap",
      "outputs": [],
      "stateMutability": "nonpayable",
      "type": "function"
    },
    {
      "inputs": [],
      "name": "token0",
      "outputs": [
        {
          "internalType": "contract ILocalConfidentialFungibleToken",
          "name": "",
          "type": "address"
        }
      ],
      "stateMutability": "view",
      "type": "function"
    },
    {
      "inputs": [],
      "name": "token1",
      "outputs": [
        {
          "internalType": "contract ILocalConfidentialFungibleToken",
          "name": "",
          "type": "address"
        }
      ],
      "stateMutability": "view",
      "type": "function"
    },
    {
      "inputs": [
        {
          "internalType": "address",
          "name": "newOwner",
          "type": "address"
        }
      ],
      "name": "transferOwnership",
      "outputs": [],
      "stateMutability": "nonpayable",
      "type": "function"
    }
  ],
  "transactionHash": "0xf0d9eba144d303a2a753adf213e4b6e1556291539d79ff1a4e715e9d1c38bb50",
  "args": [
    "0x58cC2CB73Ba98090940Aee5A2A5c5109649ff117",
    "0xA3f838586dAeD7ec3353F12584312f8A08666Fec",
    "0xd857e1E4E3c042B1cF0996E89A54C686bA87f8E2"
  ],
  "numDeployments": 1,
  "solcInputHash": "dee333371db32516375aa95cae052de1",
  "bytecode": "0x60c0604052346102cc57604051601f61279338819003918201601f19168301916001600160401b038311848410176102d0578084926060946040528339810103126102cc5761004d81610303565b61005960208301610303565b916001600160a01b039061006f90604001610303565b1680156102b9575f80546001600160a01b03198116831782556001600160a01b0316907f8be0079c531659141344cd1fd0a4f28419497f9722a3daafe3b4186f6b6457e09080a35f60606100c16102e4565b828152826020820152826040820152015273bc91f3dad1a5f19f8390c400196e58073b6a0bc460606100f16102e4565b73687820221192c5b662b25367f70076a37bc79b6c80825273848b0066793bcc60346da1f49049357399b8d59560208301819052731364cbbf2cdf5032c47d8226a6f6fbd2afcdacac604080850182905294909301949094527fed8d60e34876f751cc8b014c560745351147d9de11b9347c854e881b128ea60080546001600160a01b031990811690921790557fed8d60e34876f751cc8b014c560745351147d9de11b9347c854e881b128ea601805482169094179093557fed8d60e34876f751cc8b014c560745351147d9de11b9347c854e881b128ea6028054841690911790557fed8d60e34876f751cc8b014c560745351147d9de11b9347c854e881b128ea6038054831673bc91f3dad1a5f19f8390c400196e58073b6a0bc41790557f5ea69329017273582817d320489fbd94f775580e90c092699ca6f3d12fdf7d00805490921673a02cda4ca3a71d7c46997716f4283aa851c28812179091556001600160a01b03918216608052911660a0525161247b9081610318823960805181818161037601528181610cc80152818161122b01528181611b700152611f0f015260a0518181816101ce0152818161040401528181610d53015281816112b30152611d990152f35b631e4fbdf760e01b5f525f60045260245ffd5b5f80fd5b634e487b7160e01b5f52604160045260245ffd5b60405190608082016001600160401b038111838210176102d057604052565b51906001600160a01b03821682036102cc5756fe6080806040526004361015610012575f80fd5b5f905f3560e01c9081630dfe168114611ef25750806343c4fdd0146119da5780635fd4dc03146110f4578063715018a61461108e5780638da5cb5b146110685780639ff543c91461104a578063a953515a14610a5a578063ac51b4dc1461024c578063bb7292011461022e578063bfa60b5214610210578063cdb7d87b146101f2578063d21220a7146101ae578063d4ea066414610190578063ed8ab123146101585763f2fde38b146100c3575f80fd5b34610155576020366003190112610155576001600160a01b036100e4611f61565b6100ec612253565b168015610141576001600160a01b0382548273ffffffffffffffffffffffffffffffffffffffff198216178455167f8be0079c531659141344cd1fd0a4f28419497f9722a3daafe3b4186f6b6457e08380a380f35b631e4fbdf760e01b82526004829052602482fd5b80fd5b50346101555760203660031901126101555760406020916001600160a01b0361017f611f61565b168152600483522054604051908152f35b50346101555780600319360112610155576020600354604051908152f35b503461015557806003193601126101555760206040516001600160a01b037f0000000000000000000000000000000000000000000000000000000000000000168152f35b50346101555780600319360112610155576020600554604051908152f35b50346101555780600319360112610155576020600254604051908152f35b50346101555780600319360112610155576020600654604051908152f35b5034610155576101003660031901126101555760243567ffffffffffffffff81116108b95761027f903690600401611f33565b9060643567ffffffffffffffff811161099a576102a0903690600401611f33565b909260a43567ffffffffffffffff8111610a56576102c2903690600401611f33565b909460c435946001600160a01b0386168096036108aa5760e435936001600160a01b038516850361092f5760015415610a1157600254156109cc576103149161030c913691611fad565b600435611ff3565b9061031f3083612311565b876001600160a01b035f51602061244f5f395f51905f525416803b156108b957604051630f8e573b60e21b8152600481018590523060248201529082908290604490829084905af180156108ae576109b7575b50507f000000000000000000000000000000000000000000000000000000000000000090886001600160a01b038316916001600160a01b035f51602061244f5f395f51905f525416803b1561093357604051630f8e573b60e21b8152600481018790526001600160a01b03851660248201529083908290604490829084905af19081156109765783916109a2575b50507f0000000000000000000000000000000000000000000000000000000000000000996001600160a01b038b16986001600160a01b035f51602061244f5f395f51905f525416803b1561099e57604051630f8e573b60e21b8152600481018990526001600160a01b038c1660248201529085908290604490829084905af1908115610827578591610981575b5050906104ad6104a56104bd946104b5943691611fad565b604435611ff3565b973691611fad565b608435611ff3565b6104c73087612311565b6104d13082612311565b6001600160a01b035f51602061244f5f395f51905f525416803b1561093357604051630f8e573b60e21b8152600481018890523060248201529083908290604490829084905af1908115610976578391610961575b50506001600160a01b035f51602061244f5f395f51905f525416803b1561093357604051630f8e573b60e21b8152600481019290925230602483015282908290604490829084905af180156108ae5761094c575b505061058830600154612311565b61059430600254612311565b886001546001600160a01b035f51602061244f5f395f51905f525416803b1561093357604051630f8e573b60e21b8152600481019290925230602483015282908290604490829084905af180156108ae57610937575b506002546001600160a01b035f51602061244f5f395f51905f525416803b1561093357604051630f8e573b60e21b8152600481019290925230602483015282908290604490829084905af180156108ae5761091a575b505086149485156108bd57506001600160a01b0390965b1695876001600160a01b035f51602061244f5f395f51905f525416803b156108b957604051630f8e573b60e21b8152600481018690526001600160a01b038a1660248201529082908290604490829084905af180156108ae57610895575b505060405163eb3155b560e01b81523360048201523060248201526044810183905290602090829060649082908c906001600160a01b03165af1801561088a57610855575b5090602091610758945f14610832576107159060015461218c565b60015561072481600254612279565b6002555b604051632df5f6bf60e11b81526001600160a01b0384166004820152602481019190915292839081906044820190565b038188885af18015610827576107f0575b61079a915061077a30600154612311565b61078630600254612311565b61079281600154612311565b600254612311565b6107b16001546001600160a01b0385541690612311565b6107c86002546001600160a01b0385541690612311565b337f11f4b7a3b533a03660188385e81861fb044615f4dafe593932037df7b7836ecd8480a480f35b6020823d60201161081f575b8161080960209383611f77565b8101031261081b5761079a9150610769565b5f80fd5b3d91506107fc565b6040513d87823e3d90fd5b61083e9060025461218c565b60025561084d81600154612279565b600155610728565b91906020833d602011610882575b8161087060209383611f77565b8101031261081b5790915060206106fa565b3d9150610863565b6040513d8a823e3d90fd5b8161089f91611f77565b6108aa57875f6106b5565b8780fd5b6040513d84823e3d90fd5b5080fd5b90969086036108d5576001600160a01b039096610657565b60405162461bcd60e51b815260206004820152601c60248201527f496e76616c696420696e70757420746f6b656e20666f722073776170000000006044820152606490fd5b8161092491611f77565b61092f57885f610640565b8880fd5b8280fd5b8161094191611f77565b61092f57885f6105ea565b8161095691611f77565b61092f57885f61057a565b8161096b91611f77565b6108b957815f610526565b6040513d85823e3d90fd5b8161098e91949394611f77565b61099a5790835f61048d565b8380fd5b8480fd5b816109ac91611f77565b6108b957815f610400565b816109c191611f77565b6108aa57875f610372565b60405162461bcd60e51b815260206004820152601960248201527f5265736572766531206e6f742073657420666f722073776170000000000000006044820152606490fd5b60405162461bcd60e51b815260206004820152601960248201527f5265736572766530206e6f742073657420666f722073776170000000000000006044820152606490fd5b8580fd5b50346101555760403660031901126101555760243567ffffffffffffffff81116108b95761030c610a92610a99923690600401611f33565b3691611fad565b610aa33082612311565b816001600160a01b035f51602061244f5f395f51905f525416803b156108b957604051630f8e573b60e21b8152600481018490523060248201529082908290604490829084905af180156108ae57611035575b505033825260046020528160408120546001600160a01b035f51602061244f5f395f51905f525416803b1561093357604051630f8e573b60e21b8152600481019290925230602483015282908290604490829084905af180156108ae57611020575b506003546001600160a01b035f51602061244f5f395f51905f525416803b1561093357604051630f8e573b60e21b8152600481019290925230602483015282908290604490829084905af180156108ae5761100b575b506001546001600160a01b035f51602061244f5f395f51905f525416803b1561093357604051630f8e573b60e21b8152600481019290925230602483015282908290604490829084905af180156108ae57610ff6575b506002546001600160a01b035f51602061244f5f395f51905f525416803b1561093357604051630f8e573b60e21b8152600481019290925230602483015282908290604490829084905af180156108ae57610fe1575b50503382526004602052604082205415610f9c573382526004602052610c84816040842054612279565b33835260046020526040832055610c9d81600354612279565b600355610cac81600154612279565b600155610cbb81600254612279565b6002556001600160a01b037f000000000000000000000000000000000000000000000000000000000000000016916001600160a01b035f51602061244f5f395f51905f525416803b156108b957604051630f8e573b60e21b8152600481018490526001600160a01b03851660248201529082908290604490829084905af180156108ae57908291610f87575b50506001600160a01b037f000000000000000000000000000000000000000000000000000000000000000016926001600160a01b035f51602061244f5f395f51905f525416803b1561093357604051630f8e573b60e21b8152600481018590526001600160a01b03861660248201529083908290604490829084905af1801561097657908391610f72575b5050604051632df5f6bf60e11b815233600482015260248101849052906020908290604490829086905af180156108ae57610f43575b50604051632df5f6bf60e11b815233600482015260248101839052926020908490604490829085905af18015610f3657610f04575b60409250610e4b3083612311565b610e553083612311565b610e5f3383612311565b610e693383612311565b610e7530600154612311565b610e8130600254612311565b610e8d33600154612311565b610e9933600254612311565b610eb06001546001600160a01b0383541690612311565b610ec76002546001600160a01b0383541690612311565b82519080825260208201527f96cd817c6329656790ef8fba7675405193677d39619571282f5e21f3a98cd059833392a28151908082526020820152f35b6020833d602011610f2e575b81610f1d60209383611f77565b8101031261081b5760409250610e3d565b3d9150610f10565b50604051903d90823e3d90fd5b6020813d602011610f6a575b81610f5c60209383611f77565b8101031261081b5751610e08565b3d9150610f4f565b81610f7c91611f77565b6108b957815f610dd2565b81610f9191611f77565b61015557805f610d47565b60405162461bcd60e51b815260206004820152601460248201527f4e6f206c69717569646974792062616c616e63650000000000000000000000006044820152606490fd5b81610feb91611f77565b6108b957815f610c5a565b8161100091611f77565b6108b957815f610c04565b8161101591611f77565b6108b957815f610bae565b8161102a91611f77565b6108b957815f610b58565b8161103f91611f77565b6108b957815f610af6565b50346101555780600319360112610155576020600154604051908152f35b50346101555780600319360112610155576001600160a01b036020915416604051908152f35b50346101555780600319360112610155576110a7612253565b806001600160a01b03815473ffffffffffffffffffffffffffffffffffffffff1981168355167f8be0079c531659141344cd1fd0a4f28419497f9722a3daafe3b4186f6b6457e08280a380f35b50346101555760803660031901126101555760243567ffffffffffffffff81116108b957611126903690600401611f33565b60643567ffffffffffffffff811161099a576111659161115d61030c6111536104a5943690600401611f33565b9690933691611fad565b933691611fad565b61116f3083612311565b6111793082612311565b826001600160a01b035f51602061244f5f395f51905f525416803b156108b957604051630f8e573b60e21b8152600481018590523060248201529082908290604490829084905af180156108ae576119c5575b506001600160a01b035f51602061244f5f395f51905f525416803b156108b957604051630f8e573b60e21b8152600481018490523060248201529082908290604490829084905af180156108ae576119b0575b50506001600160a01b037f000000000000000000000000000000000000000000000000000000000000000016836001600160a01b035f51602061244f5f395f51905f525416803b156108b957604051630f8e573b60e21b8152600481018690526001600160a01b03841660248201529082908290604490829084905af180156108ae5761199b575b50506001600160a01b037f00000000000000000000000000000000000000000000000000000000000000001690846001600160a01b035f51602061244f5f395f51905f525416803b156108b957604051630f8e573b60e21b8152600481018690526001600160a01b03851660248201529082908290604490829084905af180156108ae57611986575b50506003548061190a575b5060015480611817575b5033855260046020526040852054611785575b60405163eb3155b560e01b815233600482015230602482015260448101859052906020908290606490829089905af1801561082757611756575b5060405163eb3155b560e01b815233600482015230602482015260448101839052906020908290606490829088905af1801561174b5761171c575b506003546116fd576113df818361218c565b91826003555b600154806116dc57506001556002555b338252600460205260408220546116b45733825260046020528060408320555b61142130600154612311565b61142d30600254612311565b61143930600354612311565b338252600460205261144f306040842054612311565b816001546001600160a01b035f51602061244f5f395f51905f525416803b1561093357604051630f8e573b60e21b8152600481019290925230602483015282908290604490829084905af180156108ae5761169f575b506002546001600160a01b035f51602061244f5f395f51905f525416803b1561093357604051630f8e573b60e21b8152600481019290925230602483015282908290604490829084905af180156108ae5761168a575b506003546001600160a01b035f51602061244f5f395f51905f525416803b1561093357604051630f8e573b60e21b8152600481019290925230602483015282908290604490829084905af180156108ae57611675575b505033825260046020528160408120546001600160a01b035f51602061244f5f395f51905f52541690813b1561093357604051630f8e573b60e21b8152600481019190915230602482015291908290604490829084905af1801561097657611660575b506020916115c23083612311565b6115ce33600154612311565b6115da33600254612311565b338152600483526115ef336040832054612311565b6115f93383612311565b6116106001546001600160a01b0383541690612311565b6116276002546001600160a01b0383541690612311565b60405190808252838201527fac1d76749e5447b7b16f5ab61447e1bd502f3bb4807af3b28e620d1700a6ee4560403392a2604051908152f35b61166b838092611f77565b6108b9575f6115b4565b8161167f91611f77565b6108b957815f611551565b8161169491611f77565b6108b957815f6114fb565b816116a991611f77565b6108b957815f6114a5565b33825260046020526116ca81604084205461218c565b33835260046020526040832055611415565b6116f592916116ea9161218c565b60015560025461218c565b6002556113f5565b611707818361218c565b916117148360035461218c565b6003556113e5565b6020813d602011611743575b8161173560209383611f77565b8101031261081b57516113cd565b3d9150611728565b6040513d86823e3d90fd5b6020813d60201161177d575b8161176f60209383611f77565b8101031261081b5751611392565b3d9150611762565b338552600460205261179b306040872054612311565b33855260046020528460408120546001600160a01b035f51602061244f5f395f51905f525416803b1561093357604051630f8e573b60e21b8152600481019290925230602483015282908290604490829084905af180156108ae57611802575b5050611358565b8161180c91611f77565b61099e57845f6117fb565b611822903090612311565b61182e30600254612311565b846001546001600160a01b035f51602061244f5f395f51905f525416803b1561093357604051630f8e573b60e21b8152600481019290925230602483015282908290604490829084905af180156108ae576118f5575b506002546001600160a01b035f51602061244f5f395f51905f525416803b1561093357604051630f8e573b60e21b8152600481019290925230602483015282908290604490829084905af180156108ae576118e0575b50611345565b816118ea91611f77565b61099e57845f6118da565b816118ff91611f77565b61099e57845f611884565b611915903090612311565b846003546001600160a01b035f51602061244f5f395f51905f525416803b1561093357604051630f8e573b60e21b8152600481019290925230602483015282908290604490829084905af180156108ae57611971575b5061133b565b8161197b91611f77565b61099e57845f61196b565b8161199091611f77565b61099e57845f611330565b816119a591611f77565b61099a57835f6112a7565b816119ba91611f77565b61093357825f61121f565b816119cf91611f77565b61093357825f6111cc565b503461081b57606036600319011261081b5760243567ffffffffffffffff811161081b57611a0c903690600401611f33565b9190604435926001600160a01b03841680940361081b5760015415611ead5760025415611e6857611a429161030c913691611fad565b611a4c3082612311565b6001600160a01b035f51602061244f5f395f51905f52541692833b1561081b57604051630f8e573b60e21b815260048101839052306024820152935f908590604490829084905af18015611e5d57611e47575b829350611aae30600154612311565b611aba30600254612311565b6001546001600160a01b035f51602061244f5f395f51905f525416803b1561099e57604051630f8e573b60e21b8152600481019290925230602483015284908290604490829084905af190811561174b578491611e32575b50506002546001600160a01b035f51602061244f5f395f51905f525416803b1561099e57604051630f8e573b60e21b8152600481019290925230602483015284908290604490829084905af190811561174b578491611e19575b50507f00000000000000000000000000000000000000000000000000000000000000006001600160a01b03168103611d945750600154600254915b8015611d7d575b6103e5611bba916123dc565b91611bc53084612311565b6001600160a01b035f51602061244f5f395f51905f525416803b1561099e57604051630f8e573b60e21b8152600481018590523060248201529085908290604490829084905af1801561082757611d63575b50611c92938160209285918615611d53575b15611d45575b826001600160a01b037fed8d60e34876f751cc8b014c560745351147d9de11b9347c854e881b128ea60154169260405198899586948593630afe14ad60e31b8552600485019192604091949360608401958452602084015260ff60f81b16910152565b03925af1801561174b578490611d11575b611cc393506005558015611cfa575b6103e8611cbe916123dc565b61218c565b600655611cd230600554612311565b611cde30600654612311565b611ceb6005543390612311565b611cf733600654612311565b80f35b50611cbe6103e8611d0961237b565b915050611cb2565b506020833d602011611d3d575b81611d2b60209383611f77565b8101031261081b57611cc39251611ca3565b3d9150611d1e565b50611d4e61237b565b611c2f565b9150611d5d61237b565b91611c29565b611d6e858092611f77565b611d78575f611c17565b505050fd5b50611bba6103e5611d8c61237b565b915050611bae565b9091507f00000000000000000000000000000000000000000000000000000000000000006001600160a01b031603611dd457819060025460015491611ba7565b60405162461bcd60e51b815260206004820152601360248201527f496e76616c696420696e70757420746f6b656e000000000000000000000000006044820152606490fd5b81611e2391611f77565b611e2e57825f611b6c565b5050fd5b81611e3c91611f77565b611e2e57825f611b12565b9150915f611e5491611f77565b5f908290611a9f565b6040513d5f823e3d90fd5b60405162461bcd60e51b815260206004820152601060248201527f5265736572766531206e6f7420736574000000000000000000000000000000006044820152606490fd5b60405162461bcd60e51b815260206004820152601060248201527f5265736572766530206e6f7420736574000000000000000000000000000000006044820152606490fd5b3461081b575f36600319011261081b576020906001600160a01b037f0000000000000000000000000000000000000000000000000000000000000000168152f35b9181601f8401121561081b5782359167ffffffffffffffff831161081b576020838186019501011161081b57565b600435906001600160a01b038216820361081b57565b90601f8019910116810190811067ffffffffffffffff821117611f9957604052565b634e487b7160e01b5f52604160045260245ffd5b92919267ffffffffffffffff8211611f995760405191611fd7601f8201601f191660200184611f77565b82948184528183011161081b578281602093845f960137010152565b602080925f926001600160a01b037fed8d60e34876f751cc8b014c560745351147d9de11b9347c854e881b128ea6015416905f60a460405180988196829563196d0b9b60e01b84526004840152336024840152608060448401528051918291826084860152018484015e818101830184905260056064830152601f01601f191681010301925af1918215611e5d575f92612158575b506001600160a01b035f51602061244f5f395f51905f525416803b1561081b57604051630f8e573b60e21b815260048101849052336024820152905f908290604490829084905af18015611e5d57612145575b506001600160a01b035f51602061244f5f395f51905f525416803b156108b957604051630f8e573b60e21b8152600481018490523060248201529082908290604490829084905af180156108ae5761213257505090565b61213d828092611f77565b610155575090565b61215191505f90611f77565b5f5f6120db565b9091506020813d602011612184575b8161217460209383611f77565b8101031261081b5751905f612088565b3d9150612167565b908115612243575b8015612231575b60209060646001600160a01b037fed8d60e34876f751cc8b014c560745351147d9de11b9347c854e881b128ea6015416935f604051958694859363022f65e760e31b8552600485015260248401528160448401525af1908115611e5d575f91612202575090565b90506020813d602011612229575b8161221d60209383611f77565b8101031261081b575190565b3d9150612210565b50602061223c61237b565b905061219b565b905061224d61237b565b90612194565b6001600160a01b035f5416330361226657565b63118cdaa760e01b5f523360045260245ffd5b908115612301575b80156122ef575b60209060646001600160a01b037fed8d60e34876f751cc8b014c560745351147d9de11b9347c854e881b128ea6015416935f60405195869485936303056db360e31b8552600485015260248401528160448401525af1908115611e5d575f91612202575090565b5060206122fa61237b565b9050612288565b905061230b61237b565b90612281565b6001600160a01b035f51602061244f5f395f51905f52541691823b1561081b57604051635ca4b5b160e11b815260048101929092526001600160a01b03166024820152905f908290604490829084905af18015611e5d5761236f5750565b5f61237991611f77565b565b5f60206001600160a01b037fed8d60e34876f751cc8b014c560745351147d9de11b9347c854e881b128ea6015416604460405180948193639cd07acb60e01b8352816004840152600560248401525af1908115611e5d575f91612202575090565b7fed8d60e34876f751cc8b014c560745351147d9de11b9347c854e881b128ea60154604051630afe14ad60e31b815260048101929092526024820192909252600160f81b604482015290602090829060649082905f906001600160a01b03165af1908115611e5d575f9161220257509056feed8d60e34876f751cc8b014c560745351147d9de11b9347c854e881b128ea600a164736f6c634300081b000a",
  "devdoc": {
    "details": "Simplified but functional FHE-based AMM with liquidity management",
    "errors": {
      "OwnableInvalidOwner(address)": [
        {
          "details": "The owner is not a valid owner account. (eg. `address(0)`)"
        }
      ],
      "OwnableUnauthorizedAccount(address)": [
        {
          "details": "The caller account is not authorized to perform an operation."
        }
      ]
    },
    "kind": "dev",
    "methods": {
      "owner()": {
        "details": "Returns the address of the current owner."
      },
      "renounceOwnership()": {
        "details": "Leaves the contract without owner. It will not be possible to call `onlyOwner` functions. Can only be called by the current owner. NOTE: Renouncing ownership will leave the contract without an owner, thereby disabling any functionality that is only available to the owner."
      },
      "transferOwnership(address)": {
        "details": "Transfers ownership of the contract to a new account (`newOwner`). Can only be called by the current owner."
      }
    },
    "title": "FHESwapSimple",
    "version": 1
  },
  "userdoc": {
    "kind": "user",
    "methods": {
      "addLiquidity(bytes32,bytes,bytes32,bytes)": {
        "notice": "Add liquidity and mint LP tokens"
      },
      "getAmountOut(bytes32,bytes,address)": {
        "notice": "Calculate output token amount"
      },
      "removeLiquidity(bytes32,bytes)": {
        "notice": "Remove liquidity and return tokens"
      },
      "swap(bytes32,bytes,bytes32,bytes,bytes32,bytes,address,address)": {
        "notice": "Execute token swap"
      }
    },
    "version": 1
  },
  "storageLayout": {
    "storage": [
      {
        "astId": 40673,
        "contract": "contracts/FHESwapSimple.sol:FHESwapSimple",
        "label": "_owner",
        "offset": 0,
        "slot": "0",
        "type": "t_address"
      },
      {
        "astId": 42039,
        "contract": "contracts/FHESwapSimple.sol:FHESwapSimple",
        "label": "_reserve0",
        "offset": 0,
        "slot": "1",
        "type": "t_userDefinedValueType(euint64)44511"
      },
      {
        "astId": 42042,
        "contract": "contracts/FHESwapSimple.sol:FHESwapSimple",
        "label": "_reserve1",
        "offset": 0,
        "slot": "2",
        "type": "t_userDefinedValueType(euint64)44511"
      },
      {
        "astId": 42045,
        "contract": "contracts/FHESwapSimple.sol:FHESwapSimple",
        "label": "_totalSupply",
        "offset": 0,
        "slot": "3",
        "type": "t_userDefinedValueType(euint64)44511"
      },
      {
        "astId": 42050,
        "contract": "contracts/FHESwapSimple.sol:FHESwapSimple",
        "label": "_balances",
        "offset": 0,
        "slot": "4",
        "type": "t_mapping(t_address,t_userDefinedValueType(euint64)44511)"
      },
      {
        "astId": 42053,
        "contract": "contracts/FHESwapSimple.sol:FHESwapSimple",
        "label": "_lastNumerator",
        "offset": 0,
        "slot": "5",
        "type": "t_userDefinedValueType(euint64)44511"
      },
      {
        "astId": 42056,
        "contract": "contracts/FHESwapSimple.sol:FHESwapSimple",
        "label": "_lastDenominator",
        "offset": 0,
        "slot": "6",
        "type": "t_userDefinedValueType(euint64)44511"
      }
    ],
    "types": {
      "t_address": {
        "encoding": "inplace",
        "label": "address",
        "numberOfBytes": "20"
      },
      "t_mapping(t_address,t_userDefinedValueType(euint64)44511)": {
        "encoding": "mapping",
        "key": "t_address",
        "label": "mapping(address => euint64)",
        "numberOfBytes": "32",
        "value": "t_userDefinedValueType(euint64)44511"
      },
      "t_userDefinedValueType(euint64)44511": {
        "encoding": "inplace",
        "label": "euint64",
        "numberOfBytes": "32"
      }
    }
  }
}